:020000040800F2
:10000000A8060020890100085903000851030008D0
:100010005503000831020008D70B0008000000005B
:10002000000000000000000000000000390500088A
:100030003502000800000000E10300084D0600083A
:10004000A3010008A3010008A3010008A301000800
:10005000A3010008A3010008A3010008A3010008F0
:10006000A3010008A3010008A3010008A3010008E0
:10007000A3010008A3010008A3010008A3010008D0
:10008000A3010008A3010008A3010008A3010008C0
:10009000A3010008A3010008A3010008A3010008B0
:1000A000A3010008A3010008A3010008A3010008A0
:1000B000A3010008B1060008A3010008A30100087D
:1000C000A3010008A3010008A3010008A301000880
:1000D000A301000899090008A3010008A301000872
:1000E000A3010008A3010008A301000800F002F822
:1000F00000F03AF80AA090E8000C82448344AAF188
:100100000107DA4501D100F02FF8AFF2090EBAE885
:100110000F0013F0010F18BFFB1A43F0010318473B
:100120004C0C00006C0C0000103A24BF78C878C159
:10013000FAD8520724BF30C830C144BF04680C60ED
:10014000704700000023002400250026103A28BF35
:1001500078C1FBD8520728BF30C148BF0B60704739
:100160001FB51FBD10B510BD00F033F81146FFF7E5
:10017000F7FF00F07DFD00F051F803B4FFF7F2FF48
:1001800003BC00F02AFD00000948804709480047E9
:10019000FEE7FEE7FEE7FEE7FEE7FEE7FEE7FEE737
:1001A000FEE7FEE704480549054A064B7047000094
:1001B00051060008ED000008A8000020A806002055
:1001C000A8020020A80200207047704770477047BF
:1001D0007047754600F028F8AE460500694653465C
:1001E00020F00700854618B020B5FFF7DBFFBDE81B
:1001F00020404FF000064FF000074FF000084FF08E
:10020000000B21F00701AC46ACE8C009ACE8C0091E
:10021000ACE8C009ACE8C0098D4670470446AFF3AE
:1002200000802046FFF7A9FF0048704748000020E3
:1002300000BFFEE770472DE9F04102460025002689
:10024000002000230024002791F803C00CF00F05C4
:1002500091F803C00CF0100CBCF1000F03D091F822
:1002600002C04CEA050591F800C0BCF1000F31D086
:10027000146800202BE04FF0010C0CFA00F3B1F8E9
:1002800000C00CEA03069E4220D183004FF00F0C01
:100290000CFA03F7BC4305FA03FC4CEA040491F89A
:1002A00003C0BCF1280F06D14FF0010C0CFA00FC82
:1002B000C2F814C00AE091F803C0BCF1480F05D1A0
:1002C0004FF0010C0CFA00FCC2F810C0401C0828CA
:1002D000D1D31460B1F800C0BCF1FF0F34DD546815
:1002E00000202EE000F1080C4FF0010808FA0CF392
:1002F000B1F800C00CEA03069E4221D183004FF002
:100300000F0C0CFA03F7BC4305FA03FC4CEA040497
:1003100091F803C0BCF1280F05D100F1080C08FAD0
:100320000CF8C2F8148091F803C0BCF1480F07D153
:1003300000F1080C4FF0010808FA0CF8C2F8108020
:10034000401C0828CED35460BDE8F081416170475D
:1003500000BFFEE700BFFEE77047000070B5002158
:1003600000230F22C47804B3154C246804F4E0641D
:10037000C4F5E064210AC1F10403CA40447804FAD8
:1003800003F184781440214309010E4C0678A155ED
:10039000047804F01F050124AC4005786D11AD0010
:1003A00005F1E025C5F8004109E0047804F01F05D7
:1003B0000124AC40044D0678761145F8264070BD06
:1003C0000CED00E000E400E080E100E002490143C0
:1003D000024A1160704700000000FA050CED00E0D1
:1003E0007047000029B1064AD2690243044BDA6122
:1003F00004E0034AD2698243014BDA61704700008E
:100400000010024029B1064A92690243044B9A61E6
:1004100004E0034A92698243014B9A6170470000ED
:100420000010024030B500210022002400232D4D91
:100430006D6805F00C0121B1042905D0082923D1EC
:1004400005E0294D056022E0274D05601FE0254DA0
:100450006D6805F47012234D6D6805F48034022533
:1004600005EB92421CB9214D554305600BE01D4D33
:100470006D6805F400351DB11C4D5543056002E063
:10048000194D5543056002E0174D056000BF00BFE0
:10049000144D6D6805F0F0010909154D6B5C056898
:1004A000DD4045600F4D6D6805F4E061090A104DAF
:1004B0006B5C4568DD4085600A4D6D6805F46051F0
:1004C000C90A0B4D6B5C4568DD40C560054D6D6824
:1004D00005F44041890B074D6B5CC568B5FBF3F52E
:1004E000056130BD0010024000127A0000093D0095
:1004F000300000204000002008B501210820FFF74F
:1005000081FF4FF44060ADF8000010208DF803002B
:1005100003208DF8020069460648FFF78CFE4FF471
:1005200080610448FFF712FF4FF400610148FFF7B4
:100530000DFF08BD000C0140704710B500F002F837
:1005400010BD00000CB500200190009033480068F9
:1005500040F480303149086000BF3048006800F442
:10056000003000900198401C0190009818B9019843
:10057000B0F5A06FF1D12948006800F4003010B147
:100580000120009001E0002000900098012843D154
:100590002348006840F010002149086008460068C0
:1005A00020F0030008600846006840F00200086080
:1005B0001A4840681949486008464068486008463B
:1005C000406840F4806048600846406820F47C1031
:1005D00048600846406840F4E810486008460068F3
:1005E00040F08070086000BF0C48006800F00070A8
:1005F0000028F9D00948406820F003000749486006
:100600000846406840F00200486000BF0348406868
:1006100000F00C000828F9D10CBD000000100240C9
:1006200000200240042808D14FF0E021096941F080
:1006300004014FF0E022116107E04FF0E021096969
:1006400021F004014FF0E022116170477047000073
:1006500010B51348006840F00100114908600846D1
:100660004068104908400E494860084600680E4935
:1006700008400B4908600846006820F480200860A4
:100680000846406820F4FE0048604FF41F00886070
:10069000FFF753FF4FF000600449086010BD0000F1
:1006A000001002400000FFF8FFFFF6FE08ED00E03A
:1006B00010B50121044800F062F818B10121024888
:1006C00000F04EF810BD00000004004030B589B0C5
:1006D00005460C4601210220FFF784FE0121092076
:1006E000FFF790FE0320ADF8200018208DF82300BE
:1006F00003208DF8220008A91748FFF79CFDADF8EC
:100700001850ADF814400020ADF81A00ADF81600EE
:1007100005A9124800F0EEF86020ADF804000120B1
:10072000ADF806000020ADF80C0001A90B4800F060
:1007300037F80821094800F083F801A9074800F0BC
:1007400089F80821054800F0C3F80121034800F0AA
:100750000AF809B030BD0000000C01400004004060
:10076000CA430282704721B1028842F0010202802E
:1007700004E002884FF6FE731A400280704730B5DD
:100780000246002000230024158A05EA010395890A
:1007900005EA010413B10CB1012000E0002030BDD6
:1007A00070B5002400220023058C4FF6FF6635400B
:1007B0000584028C8388848B4FF68F752C404FF60E
:1007C000FC752C400D882C434FF6FF552A400D89AF
:1007D0004FF6FF7606EA05252A434D8806EA0525E9
:1007E0002A43154DA84202D0144DA8421DD14FF204
:1007F000FF752A404D894FF6FF7606EA05252A4304
:100800004FF6FF352A408D8806EA05252A434EF625
:10081000FF752B404DF6FF752B408D8906EA0515B7
:100820002B43CD8906EA05152B4383808483CD882D
:100830008587028470BD0000002C01400034014017
:100840000A460021818B4FF6F773194011438183CB
:100850007047000070B5002200230024058C4EF67E
:10086000FF7635400584038C8488828B48F6FF75BB
:100870002A404FF6FF452A400D884FF6FF7606EADC
:1008800005252A434DF6FF752B400D8906EA0535EF
:100890002B434D8806EA05352B430B4DA84202D069
:1008A0000A4DA84208D14BF6FF752C408D894FF6B2
:1008B000FF7606EA85152C4384808283CD88A0F8D4
:1008C0004050038470BD0000002C01400034014002
:1008D0000A460021818B4FF2FF7319404FF6FF73D8
:1008E00003EA022319438183704781877047A0F888
:1008F00040107047002202881D4B98420ED01D4BBD
:1009000098420BD0B0F1804F08D01B4B984205D0D5
:100910001A4B984202D01A4B984204D14FF68F736B
:100920001A404B881A43174B984207D0164B9842EF
:1009300004D04FF6FF431A40CB881A4302808B88BD
:1009400083850B8803850A4B98420BD0094B98424C
:1009500008D00E4B984205D00D4B984202D00D4B5B
:10096000984201D10B7A03860123838270470000ED
:10097000002C014000340140000400400008004009
:10098000000C0040001000400014004000400140F6
:10099000004401400048014010B5364800F016F907
:1009A0003549087008460078432839D00EDC3628CF
:1009B00048D006DC302822D0322837D0342856D10F
:1009C0003AE0382844D0412851D10CE059280ED0C3
:1009D00004DC4B2842D0532849D11BE05A280AD0C6
:1009E0006B2844D13FE00120244908703FE00120FA
:1009F000234908703BE001202249087037E040F2AB
:100A0000DB512148FFF771FF40F2A3511E48FFF769
:100A10006EFF2CE040F2DB511B48FFF766FF26E03B
:100A200040F2DB511848FFF762FF20E040F2CF713F
:100A30001548FFF75CFF1AE040F2CF711248FFF74C
:100A400054FF14E040F2E7310F48FFF74EFF0EE08D
:100A500040F2E7310C48FFF74AFF08E04FF4877097
:100A60000A49088003E0C8200849088000BF00BF89
:100A700010BD0000003801402400002000000020CC
:100A800001000020020000200004004004000020BB
:100A900021B1828942F40052828104E082894DF6BC
:100AA000FF731A4082817047F0B503460024002688
:100AB0000025002040F66A17B94200D100BF184651
:100AC000C1F3421401F01F06012707FA06F5012CB5
:100AD00001D10C3004E0022C01D1103000E01430C0
:100AE0001AB107682F43076002E00768AF43076049
:100AF000F0BD00002DE9F04786B005460E46002403
:100B0000A24600BFA1460027B08900B100BF2F4612
:100B10002C8A4CF6FF700440F08804432C82AC8988
:100B20004EF6F3100440B0883189084371890843B8
:100B30000443AC81AC8A4FF6FF400440B0890443C3
:100B4000AC8201A8FFF76EFC1F48874202D1DDF896
:100B500010A001E0DDF80CA0A88900F4004040B12D
:100B60000AEBCA0000EB0A1031684900B0FBF1F84B
:100B700007E00AEBCA0000EB0A1031688900B0FBFD
:100B8000F1F86420B8FBF0F004012009642101FBB6
:100B90001089A88900F4004040B1322000EBC90060
:100BA000B0FBF1F000F00700044308E0322000EB56
:100BB00009106421B0FBF1F000F00F0004432C8118
:100BC00006B0BDE8F0870000003801400146888883
:100BD000C0F30800704700BFFEE700BF7047000089
:100BE00010B56FF00400FFF71DFD0A4800680A49C0
:100BF000B0FBF1F0094908700846007800EB4001AD
:100C0000C1EBC0104FF6FF7101EAC0000449088033
:100C100010BD00000800002000127A0044000020EF
:100C2000460000200146114A12884A434FF0E02353
:100C30005A6100229A611A46126942F001021A6151
:100C400000BF4FF0E022106900F001021AB100F479
:100C50008032002AF5D04FF0E022126922F0010222
:100C60004FF0E0231A6100229A617047460000208D
:100C700000BF00BFFFF7B4FF4FF4A060FFF7A6FB73
:100C80004FF4E13000F022F8472144F61F60FFF7EF
:100C90001DFDFFF731FC40F2DB510B48FFF725FE4D
:100CA00011E04FF4FA60FFF7BDFF40F2E73106486C
:100CB000FFF71BFE4FF4FA60FFF7B4FF40F2CF716D
:100CC0000148FFF712FEECE70004004010B586B0C3
:100CD0000446012144F20400FFF794FB4FF4007036
:100CE000ADF8140003208DF8160018208DF81700B9
:100CF00005A91C48FFF79FFA4FF48060ADF8140077
:100D000004208DF8170005A91648FFF794FA25204E
:100D10008DF8000000208DF801008DF80200012000
:100D20008DF803006846FFF719FB01940020ADF829
:100D30000800ADF80A00ADF80C00ADF810000C206A
:100D4000ADF80E0001A90848FFF7D4FE012240F2D9
:100D500025510548FFF7A8FE01210348FFF798FE3B
:100D600006B010BD00080140003801408C0D00089D
:100D7000000000204800000028010008D40D0008F1
:100D80004800002060060000440100080000000048
:100D90000E01000000A24A04000000000000000054
:100DA000010203040607080900000000000000001B
:100DB0000000000000000000000000000000000033
:100DC00001020304010203040607080902040608DD
:040DD000000000001F
:04000005080000ED02
:00000001FF
